{
  "contractName": "CryptoPolls",
  "abi": [
    {
      "inputs": [
        {
          "internalType": "uint256",
          "name": "",
          "type": "uint256"
        },
        {
          "internalType": "uint256",
          "name": "",
          "type": "uint256"
        }
      ],
      "name": "pollOptions",
      "outputs": [
        {
          "internalType": "string",
          "name": "",
          "type": "string"
        }
      ],
      "stateMutability": "view",
      "type": "function",
      "constant": true
    },
    {
      "inputs": [
        {
          "internalType": "uint256",
          "name": "",
          "type": "uint256"
        }
      ],
      "name": "pollToOwner",
      "outputs": [
        {
          "internalType": "address",
          "name": "",
          "type": "address"
        }
      ],
      "stateMutability": "view",
      "type": "function",
      "constant": true
    },
    {
      "inputs": [
        {
          "internalType": "uint256",
          "name": "",
          "type": "uint256"
        },
        {
          "internalType": "uint256",
          "name": "",
          "type": "uint256"
        }
      ],
      "name": "pollVotes",
      "outputs": [
        {
          "internalType": "uint256",
          "name": "",
          "type": "uint256"
        }
      ],
      "stateMutability": "view",
      "type": "function",
      "constant": true
    },
    {
      "inputs": [
        {
          "internalType": "uint256",
          "name": "",
          "type": "uint256"
        }
      ],
      "name": "polls",
      "outputs": [
        {
          "internalType": "uint256",
          "name": "id",
          "type": "uint256"
        },
        {
          "internalType": "uint256",
          "name": "creationDate",
          "type": "uint256"
        },
        {
          "internalType": "uint256",
          "name": "finishDate",
          "type": "uint256"
        },
        {
          "internalType": "uint8",
          "name": "totalOptions",
          "type": "uint8"
        },
        {
          "internalType": "address",
          "name": "author",
          "type": "address"
        },
        {
          "internalType": "string",
          "name": "title",
          "type": "string"
        }
      ],
      "stateMutability": "view",
      "type": "function",
      "constant": true
    },
    {
      "inputs": [],
      "name": "totalPolls",
      "outputs": [
        {
          "internalType": "uint256",
          "name": "",
          "type": "uint256"
        }
      ],
      "stateMutability": "view",
      "type": "function",
      "constant": true
    },
    {
      "inputs": [
        {
          "internalType": "uint256",
          "name": "_pollId",
          "type": "uint256"
        }
      ],
      "name": "getPollOptions",
      "outputs": [
        {
          "internalType": "string[]",
          "name": "",
          "type": "string[]"
        }
      ],
      "stateMutability": "view",
      "type": "function",
      "constant": true
    },
    {
      "inputs": [
        {
          "internalType": "string",
          "name": "_title",
          "type": "string"
        },
        {
          "internalType": "uint8",
          "name": "totalOptions",
          "type": "uint8"
        },
        {
          "internalType": "string[]",
          "name": "_options",
          "type": "string[]"
        }
      ],
      "name": "createPoll",
      "outputs": [],
      "stateMutability": "nonpayable",
      "type": "function"
    }
  ],
  "bytecode": "0x60806040526000805534801561001457600080fd5b50610eb4806100246000396000f3fe608060405234801561001057600080fd5b506004361061007d5760003560e01c8063a2eeeb2f1161005b578063a2eeeb2f146100fe578063ac2f00741461011c578063f0114ad114610151578063f7562765146101815761007d565b80630e77e4f7146100825780633cd2f003146100b2578063934df0e1146100ce575b600080fd5b61009c6004803603810190610097919061094a565b6101b1565b6040516100a99190610ad7565b60405180910390f35b6100cc60048036038101906100c791906108cb565b6101e4565b005b6100e860048036038101906100e39190610973565b61037e565b6040516100f59190610b36565b60405180910390f35b6101066103af565b6040516101139190610b36565b60405180910390f35b6101366004803603810190610131919061094a565b6103b5565b60405161014896959493929190610b51565b60405180910390f35b61016b60048036038101906101669190610973565b6104a6565b6040516101789190610b14565b60405180910390f35b61019b6004803603810190610196919061094a565b61055f565b6040516101a89190610af2565b60405180910390f35b60016020528060005260406000206000915054906101000a900473ffffffffffffffffffffffffffffffffffffffff1681565b6000808154809291906101f690610d69565b919050555033600160008054815260200190815260200160002060006101000a81548173ffffffffffffffffffffffffffffffffffffffff021916908373ffffffffffffffffffffffffffffffffffffffff1602179055506040518060c0016040528060005481526020014281526020014281526020018360ff1681526020013373ffffffffffffffffffffffffffffffffffffffff16815260200184815250600260008054815260200190815260200160002060008201518160000155602082015181600101556040820151816002015560608201518160030160006101000a81548160ff021916908360ff16021790555060808201518160030160016101000a81548173ffffffffffffffffffffffffffffffffffffffff021916908373ffffffffffffffffffffffffffffffffffffffff16021790555060a082015181600401908051906020019061034c92919061064b565b5090505080600360008054815260200190815260200160002090805190602001906103789291906106d1565b50505050565b6004602052816000526040600020818154811061039a57600080fd5b90600052602060002001600091509150505481565b60005481565b60026020528060005260406000206000915090508060000154908060010154908060020154908060030160009054906101000a900460ff16908060030160019054906101000a900473ffffffffffffffffffffffffffffffffffffffff169080600401805461042390610d37565b80601f016020809104026020016040519081016040528092919081815260200182805461044f90610d37565b801561049c5780601f106104715761010080835404028352916020019161049c565b820191906000526020600020905b81548152906001019060200180831161047f57829003601f168201915b5050505050905086565b600360205281600052604060002081815481106104c257600080fd5b906000526020600020016000915091505080546104de90610d37565b80601f016020809104026020016040519081016040528092919081815260200182805461050a90610d37565b80156105575780601f1061052c57610100808354040283529160200191610557565b820191906000526020600020905b81548152906001019060200180831161053a57829003601f168201915b505050505081565b606060036000838152602001908152602001600020805480602002602001604051908101604052809291908181526020016000905b828210156106405783829060005260206000200180546105b390610d37565b80601f01602080910402602001604051908101604052809291908181526020018280546105df90610d37565b801561062c5780601f106106015761010080835404028352916020019161062c565b820191906000526020600020905b81548152906001019060200180831161060f57829003601f168201915b505050505081526020019060010190610594565b505050509050919050565b82805461065790610d37565b90600052602060002090601f01602090048101928261067957600085556106c0565b82601f1061069257805160ff19168380011785556106c0565b828001600101855582156106c0579182015b828111156106bf5782518255916020019190600101906106a4565b5b5090506106cd9190610731565b5090565b828054828255906000526020600020908101928215610720579160200282015b8281111561071f57825182908051906020019061070f92919061064b565b50916020019190600101906106f1565b5b50905061072d919061074e565b5090565b5b8082111561074a576000816000905550600101610732565b5090565b5b8082111561076e57600081816107659190610772565b5060010161074f565b5090565b50805461077e90610d37565b6000825580601f1061079057506107af565b601f0160209004906000526020600020908101906107ae9190610731565b5b50565b60006107c56107c084610bea565b610bb9565b9050808382526020820190508260005b8581101561080557813585016107eb8882610877565b8452602084019350602083019250506001810190506107d5565b5050509392505050565b600061082261081d84610c16565b610bb9565b90508281526020810184848401111561083a57600080fd5b610845848285610cf5565b509392505050565b600082601f83011261085e57600080fd5b813561086e8482602086016107b2565b91505092915050565b600082601f83011261088857600080fd5b813561089884826020860161080f565b91505092915050565b6000813590506108b081610e50565b92915050565b6000813590506108c581610e67565b92915050565b6000806000606084860312156108e057600080fd5b600084013567ffffffffffffffff8111156108fa57600080fd5b61090686828701610877565b9350506020610917868287016108b6565b925050604084013567ffffffffffffffff81111561093457600080fd5b6109408682870161084d565b9150509250925092565b60006020828403121561095c57600080fd5b600061096a848285016108a1565b91505092915050565b6000806040838503121561098657600080fd5b6000610994858286016108a1565b92505060206109a5858286016108a1565b9150509250929050565b60006109bb8383610a47565b905092915050565b6109cc81610cac565b82525050565b60006109dd82610c56565b6109e78185610c79565b9350836020820285016109f985610c46565b8060005b85811015610a355784840389528151610a1685826109af565b9450610a2183610c6c565b925060208a019950506001810190506109fd565b50829750879550505050505092915050565b6000610a5282610c61565b610a5c8185610c8a565b9350610a6c818560208601610d04565b610a7581610e3f565b840191505092915050565b6000610a8b82610c61565b610a958185610c9b565b9350610aa5818560208601610d04565b610aae81610e3f565b840191505092915050565b610ac281610cde565b82525050565b610ad181610ce8565b82525050565b6000602082019050610aec60008301846109c3565b92915050565b60006020820190508181036000830152610b0c81846109d2565b905092915050565b60006020820190508181036000830152610b2e8184610a80565b905092915050565b6000602082019050610b4b6000830184610ab9565b92915050565b600060c082019050610b666000830189610ab9565b610b736020830188610ab9565b610b806040830187610ab9565b610b8d6060830186610ac8565b610b9a60808301856109c3565b81810360a0830152610bac8184610a80565b9050979650505050505050565b6000604051905081810181811067ffffffffffffffff82111715610be057610bdf610e10565b5b8060405250919050565b600067ffffffffffffffff821115610c0557610c04610e10565b5b602082029050602081019050919050565b600067ffffffffffffffff821115610c3157610c30610e10565b5b601f19601f8301169050602081019050919050565b6000819050602082019050919050565b600081519050919050565b600081519050919050565b6000602082019050919050565b600082825260208201905092915050565b600082825260208201905092915050565b600082825260208201905092915050565b6000610cb782610cbe565b9050919050565b600073ffffffffffffffffffffffffffffffffffffffff82169050919050565b6000819050919050565b600060ff82169050919050565b82818337600083830152505050565b60005b83811015610d22578082015181840152602081019050610d07565b83811115610d31576000848401525b50505050565b60006002820490506001821680610d4f57607f821691505b60208210811415610d6357610d62610de1565b5b50919050565b6000610d7482610cde565b91507fffffffffffffffffffffffffffffffffffffffffffffffffffffffffffffffff821415610da757610da6610db2565b5b600182019050919050565b7f4e487b7100000000000000000000000000000000000000000000000000000000600052601160045260246000fd5b7f4e487b7100000000000000000000000000000000000000000000000000000000600052602260045260246000fd5b7f4e487b7100000000000000000000000000000000000000000000000000000000600052604160045260246000fd5b6000601f19601f8301169050919050565b610e5981610cde565b8114610e6457600080fd5b50565b610e7081610ce8565b8114610e7b57600080fd5b5056fea26469706673582212208e0bf7039d6a069deb8e505df03cc81ca11dceccd905f602dfbe1f18aafac0e964736f6c63430008000033",
  "immutableReferences": {},
  "source": "pragma solidity ^0.8.0;\n\ncontract CryptoPolls {\n    uint256 public totalPolls = 0;\n    mapping(uint256 => address) public pollToOwner;\n    mapping(uint256 => Poll) public polls;\n    mapping(uint256 => string[]) public pollOptions;\n    mapping(uint256 => uint256[]) public pollVotes;\n\n    //TODO: REDUCE UINT SIZE\n    struct Poll {\n        uint256 id;\n        uint256 creationDate;\n        uint256 finishDate;\n        uint8 totalOptions;\n        address author;\n        string title;\n    }\n\n    function getPollOptions(uint256 _pollId)\n        public\n        view\n        returns (string[] memory)\n    {\n        return pollOptions[_pollId];\n    }\n\n    function createPoll(\n        string memory _title,\n        uint8 totalOptions,\n        string[] memory _options\n    ) public {\n        totalPolls++;\n        pollToOwner[totalPolls] = msg.sender;\n        polls[totalPolls] = Poll(\n            totalPolls,\n            block.timestamp,\n            block.timestamp,\n            totalOptions,\n            msg.sender,\n            _title\n        );\n\n        pollOptions[totalPolls] = _options;\n    }\n}\n",
  "sourcePath": "/home/cafeina/sources/solidity/crypto-polls/contracts/CryptoPolls.sol",
  "compiler": {
    "name": "solc",
    "version": "0.8.0+commit.c7dfd78e.Emscripten.clang"
  },
  "schemaVersion": "3.4.1",
  "updatedAt": "2021-08-08T21:10:44.876Z",
  "networkType": "ethereum",
  "devdoc": {
    "kind": "dev",
    "methods": {},
    "version": 1
  },
  "userdoc": {
    "kind": "user",
    "methods": {},
    "version": 1
  }
}