{
  "contractName": "CryptoPolls",
  "abi": [
    {
      "anonymous": false,
      "inputs": [
        {
          "indexed": false,
          "internalType": "uint256",
          "name": "id",
          "type": "uint256"
        },
        {
          "indexed": false,
          "internalType": "uint256",
          "name": "creationDate",
          "type": "uint256"
        },
        {
          "indexed": false,
          "internalType": "uint256",
          "name": "closeDate",
          "type": "uint256"
        },
        {
          "indexed": false,
          "internalType": "address",
          "name": "author",
          "type": "address"
        },
        {
          "indexed": false,
          "internalType": "string",
          "name": "title",
          "type": "string"
        }
      ],
      "name": "PollCreated",
      "type": "event"
    },
    {
      "inputs": [
        {
          "internalType": "uint256",
          "name": "",
          "type": "uint256"
        },
        {
          "internalType": "uint256",
          "name": "",
          "type": "uint256"
        }
      ],
      "name": "pollOptions",
      "outputs": [
        {
          "internalType": "string",
          "name": "",
          "type": "string"
        }
      ],
      "stateMutability": "view",
      "type": "function",
      "constant": true
    },
    {
      "inputs": [
        {
          "internalType": "uint256",
          "name": "",
          "type": "uint256"
        }
      ],
      "name": "pollToOwner",
      "outputs": [
        {
          "internalType": "address",
          "name": "",
          "type": "address"
        }
      ],
      "stateMutability": "view",
      "type": "function",
      "constant": true
    },
    {
      "inputs": [
        {
          "internalType": "uint256",
          "name": "",
          "type": "uint256"
        },
        {
          "internalType": "uint256",
          "name": "",
          "type": "uint256"
        }
      ],
      "name": "pollVotes",
      "outputs": [
        {
          "internalType": "uint256",
          "name": "",
          "type": "uint256"
        }
      ],
      "stateMutability": "view",
      "type": "function",
      "constant": true
    },
    {
      "inputs": [
        {
          "internalType": "uint256",
          "name": "",
          "type": "uint256"
        }
      ],
      "name": "polls",
      "outputs": [
        {
          "internalType": "uint256",
          "name": "id",
          "type": "uint256"
        },
        {
          "internalType": "uint256",
          "name": "creationDate",
          "type": "uint256"
        },
        {
          "internalType": "uint256",
          "name": "closeDate",
          "type": "uint256"
        },
        {
          "internalType": "uint8",
          "name": "totalOptions",
          "type": "uint8"
        },
        {
          "internalType": "address",
          "name": "author",
          "type": "address"
        },
        {
          "internalType": "string",
          "name": "title",
          "type": "string"
        }
      ],
      "stateMutability": "view",
      "type": "function",
      "constant": true
    },
    {
      "inputs": [],
      "name": "totalPolls",
      "outputs": [
        {
          "internalType": "uint256",
          "name": "",
          "type": "uint256"
        }
      ],
      "stateMutability": "view",
      "type": "function",
      "constant": true
    },
    {
      "inputs": [
        {
          "internalType": "uint256",
          "name": "_pollId",
          "type": "uint256"
        }
      ],
      "name": "getPollOptions",
      "outputs": [
        {
          "internalType": "string[]",
          "name": "",
          "type": "string[]"
        }
      ],
      "stateMutability": "view",
      "type": "function",
      "constant": true
    },
    {
      "inputs": [
        {
          "internalType": "uint256",
          "name": "_pollId",
          "type": "uint256"
        }
      ],
      "name": "getPollVotes",
      "outputs": [
        {
          "internalType": "uint256[]",
          "name": "",
          "type": "uint256[]"
        }
      ],
      "stateMutability": "view",
      "type": "function",
      "constant": true
    },
    {
      "inputs": [
        {
          "internalType": "string",
          "name": "_title",
          "type": "string"
        },
        {
          "internalType": "uint8",
          "name": "totalOptions",
          "type": "uint8"
        },
        {
          "internalType": "string[]",
          "name": "_options",
          "type": "string[]"
        },
        {
          "internalType": "uint256",
          "name": "closeDate",
          "type": "uint256"
        }
      ],
      "name": "createPoll",
      "outputs": [],
      "stateMutability": "nonpayable",
      "type": "function"
    },
    {
      "inputs": [
        {
          "internalType": "uint256",
          "name": "_pollId",
          "type": "uint256"
        },
        {
          "internalType": "uint256",
          "name": "_optionId",
          "type": "uint256"
        }
      ],
      "name": "vote",
      "outputs": [],
      "stateMutability": "nonpayable",
      "type": "function"
    }
  ],
  "bytecode": "0x60806040526000805534801561001457600080fd5b5061131f806100246000396000f3fe608060405234801561001057600080fd5b50600436106100935760003560e01c8063ac2f007411610066578063ac2f007414610132578063b384abef14610167578063bbff716614610183578063f0114ad1146101b3578063f7562765146101e357610093565b80630e77e4f7146100985780631f2084ae146100c8578063934df0e1146100e4578063a2eeeb2f14610114575b600080fd5b6100b260048036038101906100ad9190610c1b565b610213565b6040516100bf9190610e6d565b60405180910390f35b6100e260048036038101906100dd9190610b88565b610246565b005b6100fe60048036038101906100f99190610c44565b6104bc565b60405161010b9190610f0e565b60405180910390f35b61011c6104ed565b6040516101299190610f0e565b60405180910390f35b61014c60048036038101906101479190610c1b565b6104f3565b60405161015e96959493929190610f83565b60405180910390f35b610181600480360381019061017c9190610c44565b6105e4565b005b61019d60048036038101906101989190610c1b565b6106ab565b6040516101aa9190610eaa565b60405180910390f35b6101cd60048036038101906101c89190610c44565b610716565b6040516101da9190610ecc565b60405180910390f35b6101fd60048036038101906101f89190610c1b565b6107cf565b60405161020a9190610e88565b60405180910390f35b60016020528060005260406000206000915054906101000a900473ffffffffffffffffffffffffffffffffffffffff1681565b600080815480929190610258906111d4565b919050555033600160008054815260200190815260200160002060006101000a81548173ffffffffffffffffffffffffffffffffffffffff021916908373ffffffffffffffffffffffffffffffffffffffff1602179055506040518060c0016040528060005481526020014281526020018281526020018460ff1681526020013373ffffffffffffffffffffffffffffffffffffffff16815260200185815250600260008054815260200190815260200160002060008201518160000155602082015181600101556040820151816002015560608201518160030160006101000a81548160ff021916908360ff16021790555060808201518160030160016101000a81548173ffffffffffffffffffffffffffffffffffffffff021916908373ffffffffffffffffffffffffffffffffffffffff16021790555060a08201518160040190805190602001906103ae9291906108bb565b5090505081600360008054815260200190815260200160002090805190602001906103da929190610941565b508260ff1667ffffffffffffffff81111561041e577f4e487b7100000000000000000000000000000000000000000000000000000000600052604160045260246000fd5b60405190808252806020026020018201604052801561044c5781602001602082028036833780820191505090505b50600460008054815260200190815260200160002090805190602001906104749291906109a1565b507f12c37c67e01057da8b5402652ecd06c3980f2dd8f8067b34259ea4a8c3270937600054428333886040516104ae959493929190610f29565b60405180910390a150505050565b600460205281600052604060002081815481106104d857600080fd5b90600052602060002001600091509150505481565b60005481565b60026020528060005260406000206000915090508060000154908060010154908060020154908060030160009054906101000a900460ff16908060030160019054906101000a900473ffffffffffffffffffffffffffffffffffffffff1690806004018054610561906111a2565b80601f016020809104026020016040519081016040528092919081815260200182805461058d906111a2565b80156105da5780601f106105af576101008083540402835291602001916105da565b820191906000526020600020905b8154815290600101906020018083116105bd57829003601f168201915b5050505050905086565b6002600083815260200190815260200160002060020154421061063c576040517f08c379a000000000000000000000000000000000000000000000000000000000815260040161063390610eee565b60405180910390fd5b600460008381526020019081526020016000208181548110610687577f4e487b7100000000000000000000000000000000000000000000000000000000600052603260045260246000fd5b9060005260206000200160008154809291906106a2906111d4565b91905055505050565b60606004600083815260200190815260200160002080548060200260200160405190810160405280929190818152602001828054801561070a57602002820191906000526020600020905b8154815260200190600101908083116106f6575b50505050509050919050565b6003602052816000526040600020818154811061073257600080fd5b9060005260206000200160009150915050805461074e906111a2565b80601f016020809104026020016040519081016040528092919081815260200182805461077a906111a2565b80156107c75780601f1061079c576101008083540402835291602001916107c7565b820191906000526020600020905b8154815290600101906020018083116107aa57829003601f168201915b505050505081565b606060036000838152602001908152602001600020805480602002602001604051908101604052809291908181526020016000905b828210156108b0578382906000526020600020018054610823906111a2565b80601f016020809104026020016040519081016040528092919081815260200182805461084f906111a2565b801561089c5780601f106108715761010080835404028352916020019161089c565b820191906000526020600020905b81548152906001019060200180831161087f57829003601f168201915b505050505081526020019060010190610804565b505050509050919050565b8280546108c7906111a2565b90600052602060002090601f0160209004810192826108e95760008555610930565b82601f1061090257805160ff1916838001178555610930565b82800160010185558215610930579182015b8281111561092f578251825591602001919060010190610914565b5b50905061093d91906109ee565b5090565b828054828255906000526020600020908101928215610990579160200282015b8281111561098f57825182908051906020019061097f9291906108bb565b5091602001919060010190610961565b5b50905061099d9190610a0b565b5090565b8280548282559060005260206000209081019282156109dd579160200282015b828111156109dc5782518255916020019190600101906109c1565b5b5090506109ea91906109ee565b5090565b5b80821115610a075760008160009055506001016109ef565b5090565b5b80821115610a2b5760008181610a229190610a2f565b50600101610a0c565b5090565b508054610a3b906111a2565b6000825580601f10610a4d5750610a6c565b601f016020900490600052602060002090810190610a6b91906109ee565b5b50565b6000610a82610a7d8461101c565b610feb565b9050808382526020820190508260005b85811015610ac25781358501610aa88882610b34565b845260208401935060208301925050600181019050610a92565b5050509392505050565b6000610adf610ada84611048565b610feb565b905082815260208101848484011115610af757600080fd5b610b02848285611160565b509392505050565b600082601f830112610b1b57600080fd5b8135610b2b848260208601610a6f565b91505092915050565b600082601f830112610b4557600080fd5b8135610b55848260208601610acc565b91505092915050565b600081359050610b6d816112bb565b92915050565b600081359050610b82816112d2565b92915050565b60008060008060808587031215610b9e57600080fd5b600085013567ffffffffffffffff811115610bb857600080fd5b610bc487828801610b34565b9450506020610bd587828801610b73565b935050604085013567ffffffffffffffff811115610bf257600080fd5b610bfe87828801610b0a565b9250506060610c0f87828801610b5e565b91505092959194509250565b600060208284031215610c2d57600080fd5b6000610c3b84828501610b5e565b91505092915050565b60008060408385031215610c5757600080fd5b6000610c6585828601610b5e565b9250506020610c7685828601610b5e565b9150509250929050565b6000610c8c8383610d8e565b905092915050565b6000610ca08383610e40565b60208301905092915050565b610cb581611117565b82525050565b6000610cc682611098565b610cd081856110d3565b935083602082028501610ce285611078565b8060005b85811015610d1e5784840389528151610cff8582610c80565b9450610d0a836110b9565b925060208a01995050600181019050610ce6565b50829750879550505050505092915050565b6000610d3b826110a3565b610d4581856110e4565b9350610d5083611088565b8060005b83811015610d81578151610d688882610c94565b9750610d73836110c6565b925050600181019050610d54565b5085935050505092915050565b6000610d99826110ae565b610da381856110f5565b9350610db381856020860161116f565b610dbc816112aa565b840191505092915050565b6000610dd2826110ae565b610ddc8185611106565b9350610dec81856020860161116f565b610df5816112aa565b840191505092915050565b6000610e0d601c83611106565b91507f43616e277420766f7465206f6e206120636c6f73656420706f6c6c2e000000006000830152602082019050919050565b610e4981611149565b82525050565b610e5881611149565b82525050565b610e6781611153565b82525050565b6000602082019050610e826000830184610cac565b92915050565b60006020820190508181036000830152610ea28184610cbb565b905092915050565b60006020820190508181036000830152610ec48184610d30565b905092915050565b60006020820190508181036000830152610ee68184610dc7565b905092915050565b60006020820190508181036000830152610f0781610e00565b9050919050565b6000602082019050610f236000830184610e4f565b92915050565b600060a082019050610f3e6000830188610e4f565b610f4b6020830187610e4f565b610f586040830186610e4f565b610f656060830185610cac565b8181036080830152610f778184610dc7565b90509695505050505050565b600060c082019050610f986000830189610e4f565b610fa56020830188610e4f565b610fb26040830187610e4f565b610fbf6060830186610e5e565b610fcc6080830185610cac565b81810360a0830152610fde8184610dc7565b9050979650505050505050565b6000604051905081810181811067ffffffffffffffff821117156110125761101161127b565b5b8060405250919050565b600067ffffffffffffffff8211156110375761103661127b565b5b602082029050602081019050919050565b600067ffffffffffffffff8211156110635761106261127b565b5b601f19601f8301169050602081019050919050565b6000819050602082019050919050565b6000819050602082019050919050565b600081519050919050565b600081519050919050565b600081519050919050565b6000602082019050919050565b6000602082019050919050565b600082825260208201905092915050565b600082825260208201905092915050565b600082825260208201905092915050565b600082825260208201905092915050565b600061112282611129565b9050919050565b600073ffffffffffffffffffffffffffffffffffffffff82169050919050565b6000819050919050565b600060ff82169050919050565b82818337600083830152505050565b60005b8381101561118d578082015181840152602081019050611172565b8381111561119c576000848401525b50505050565b600060028204905060018216806111ba57607f821691505b602082108114156111ce576111cd61124c565b5b50919050565b60006111df82611149565b91507fffffffffffffffffffffffffffffffffffffffffffffffffffffffffffffffff8214156112125761121161121d565b5b600182019050919050565b7f4e487b7100000000000000000000000000000000000000000000000000000000600052601160045260246000fd5b7f4e487b7100000000000000000000000000000000000000000000000000000000600052602260045260246000fd5b7f4e487b7100000000000000000000000000000000000000000000000000000000600052604160045260246000fd5b6000601f19601f8301169050919050565b6112c481611149565b81146112cf57600080fd5b50565b6112db81611153565b81146112e657600080fd5b5056fea2646970667358221220d19180b7dacb44b70142b74d7e8be244060f4bbbee22aeb6a26e1321d31b23a164736f6c63430008000033",
  "immutableReferences": {},
  "source": "pragma solidity ^0.8.0;\n\ncontract CryptoPolls {\n    uint256 public totalPolls = 0;\n    mapping(uint256 => address) public pollToOwner;\n    mapping(uint256 => Poll) public polls;\n    mapping(uint256 => string[]) public pollOptions;\n    mapping(uint256 => uint256[]) public pollVotes;\n\n    //TODO: REDUCE UINT SIZE\n    struct Poll {\n        uint256 id;\n        uint256 creationDate;\n        uint256 closeDate;\n        uint8 totalOptions;\n        address author;\n        string title;\n    }\n\n    event PollCreated(\n        uint256 id,\n        uint256 creationDate,\n        uint256 closeDate,\n        address author,\n        string title\n    );\n\n    function getPollOptions(uint256 _pollId)\n        public\n        view\n        returns (string[] memory)\n    {\n        return pollOptions[_pollId];\n    }\n\n    function getPollVotes(uint256 _pollId)\n        public\n        view\n        returns (uint256[] memory)\n    {\n        return pollVotes[_pollId];\n    }\n\n    function createPoll(\n        string memory _title,\n        uint8 totalOptions,\n        string[] memory _options,\n        uint256 closeDate\n    ) public {\n        totalPolls++;\n        pollToOwner[totalPolls] = msg.sender;\n        polls[totalPolls] = Poll(\n            totalPolls,\n            block.timestamp,\n            closeDate,\n            totalOptions,\n            msg.sender,\n            _title\n        );\n\n        pollOptions[totalPolls] = _options;\n        pollVotes[totalPolls] = new uint256[](totalOptions);\n\n        emit PollCreated(\n            totalPolls,\n            block.timestamp,\n            closeDate,\n            msg.sender,\n            _title\n        );\n    }\n\n    function vote(uint256 _pollId, uint256 _optionId) public {\n        require(\n            block.timestamp < polls[_pollId].closeDate,\n            \"Can't vote on a closed poll.\"\n        );\n        pollVotes[_pollId][_optionId]++;\n    }\n}\n",
  "sourcePath": "/home/cafeina/sources/solidity/crypto-polls/contracts/CryptoPolls.sol",
  "compiler": {
    "name": "solc",
    "version": "0.8.0+commit.c7dfd78e.Emscripten.clang"
  },
  "schemaVersion": "3.4.1",
  "updatedAt": "2021-08-10T02:33:26.005Z",
  "networkType": "ethereum",
  "devdoc": {
    "kind": "dev",
    "methods": {},
    "version": 1
  },
  "userdoc": {
    "kind": "user",
    "methods": {},
    "version": 1
  }
}