{
  "contractName": "CryptoPolls",
  "abi": [
    {
      "inputs": [],
      "payable": false,
      "stateMutability": "nonpayable",
      "type": "constructor"
    },
    {
      "anonymous": false,
      "inputs": [
        {
          "indexed": false,
          "internalType": "string",
          "name": "title",
          "type": "string"
        },
        {
          "indexed": false,
          "internalType": "address",
          "name": "author",
          "type": "address"
        }
      ],
      "name": "PollCreated",
      "type": "event"
    },
    {
      "constant": true,
      "inputs": [],
      "name": "name",
      "outputs": [
        {
          "internalType": "string",
          "name": "",
          "type": "string"
        }
      ],
      "payable": false,
      "stateMutability": "view",
      "type": "function"
    },
    {
      "constant": true,
      "inputs": [
        {
          "internalType": "uint256",
          "name": "",
          "type": "uint256"
        },
        {
          "internalType": "uint256",
          "name": "",
          "type": "uint256"
        }
      ],
      "name": "options",
      "outputs": [
        {
          "internalType": "string",
          "name": "",
          "type": "string"
        }
      ],
      "payable": false,
      "stateMutability": "view",
      "type": "function"
    },
    {
      "constant": true,
      "inputs": [
        {
          "internalType": "uint256",
          "name": "",
          "type": "uint256"
        }
      ],
      "name": "polls",
      "outputs": [
        {
          "internalType": "string",
          "name": "title",
          "type": "string"
        },
        {
          "internalType": "address",
          "name": "author",
          "type": "address"
        }
      ],
      "payable": false,
      "stateMutability": "view",
      "type": "function"
    },
    {
      "constant": true,
      "inputs": [],
      "name": "totalPolls",
      "outputs": [
        {
          "internalType": "uint256",
          "name": "",
          "type": "uint256"
        }
      ],
      "payable": false,
      "stateMutability": "view",
      "type": "function"
    },
    {
      "constant": true,
      "inputs": [
        {
          "internalType": "uint256",
          "name": "",
          "type": "uint256"
        },
        {
          "internalType": "uint256",
          "name": "",
          "type": "uint256"
        }
      ],
      "name": "votes",
      "outputs": [
        {
          "internalType": "uint256",
          "name": "",
          "type": "uint256"
        }
      ],
      "payable": false,
      "stateMutability": "view",
      "type": "function"
    }
  ],
  "bytecode": "0x60806040526040518060400160405280600b81526020017f43727970746f506f6c6c730000000000000000000000000000000000000000008152506000908051906020019061004f929190610657565b50600060015534801561006157600080fd5b5060016000815480929190600101919050555060405180604001604052806040518060400160405280600681526020017f506f6c6c203100000000000000000000000000000000000000000000000000008152508152602001600073ffffffffffffffffffffffffffffffffffffffff1681525060026000600154815260200190815260200160002060008201518160000190805190602001906101069291906106d7565b5060208201518160010160006101000a81548173ffffffffffffffffffffffffffffffffffffffff021916908373ffffffffffffffffffffffffffffffffffffffff1602179055509050506004600060015481526020019081526020016000208060018154018082558091505090600182039060005260206000200160006040518060400160405280600581526020017f4f70742031000000000000000000000000000000000000000000000000000000815250909190915090805190602001906101d2929190610657565b50506004600060015481526020019081526020016000208060018154018082558091505090600182039060005260206000200160006040518060400160405280600581526020017f4f7074203200000000000000000000000000000000000000000000000000000081525090919091509080519060200190610255929190610657565b50506004600060015481526020019081526020016000208060018154018082558091505090600182039060005260206000200160006040518060400160405280600581526020017f4f70742033000000000000000000000000000000000000000000000000000000815250909190915090805190602001906102d8929190610657565b50506004600060015481526020019081526020016000208060018154018082558091505090600182039060005260206000200160006040518060400160405280600581526020017f4f707420340000000000000000000000000000000000000000000000000000008152509091909150908051906020019061035b929190610657565b5050600360006001548152602001908152602001600020600090806001815401808255809150509060018203906000526020600020016000909192909190915055506003600060015481526020019081526020016000206000908060018154018082558091505090600182039060005260206000200160009091929091909150555060016000815480929190600101919050555060405180604001604052806040518060400160405280600681526020017f506f6c6c203200000000000000000000000000000000000000000000000000008152508152602001600073ffffffffffffffffffffffffffffffffffffffff1681525060026000600154815260200190815260200160002060008201518160000190805190602001906104819291906106d7565b5060208201518160010160006101000a81548173ffffffffffffffffffffffffffffffffffffffff021916908373ffffffffffffffffffffffffffffffffffffffff1602179055509050506004600060015481526020019081526020016000208060018154018082558091505090600182039060005260206000200160006040518060400160405280600581526020017f4f707420310000000000000000000000000000000000000000000000000000008152509091909150908051906020019061054d929190610657565b50506004600060015481526020019081526020016000208060018154018082558091505090600182039060005260206000200160006040518060400160405280600581526020017f4f70742032000000000000000000000000000000000000000000000000000000815250909190915090805190602001906105d0929190610657565b5050600360006001548152602001908152602001600020600090806001815401808255809150509060018203906000526020600020016000909192909190915055506003600060015481526020019081526020016000206000908060018154018082558091505090600182039060005260206000200160009091929091909150555061077c565b828054600181600116156101000203166002900490600052602060002090601f016020900481019282601f1061069857805160ff19168380011785556106c6565b828001600101855582156106c6579182015b828111156106c55782518255916020019190600101906106aa565b5b5090506106d39190610757565b5090565b828054600181600116156101000203166002900490600052602060002090601f016020900481019282601f1061071857805160ff1916838001178555610746565b82800160010185558215610746579182015b8281111561074557825182559160200191906001019061072a565b5b5090506107539190610757565b5090565b61077991905b8082111561077557600081600090555060010161075d565b5090565b90565b61057d8061078b6000396000f3fe608060405234801561001057600080fd5b50600436106100575760003560e01c806306fdde031461005c578063a2eeeb2f146100df578063ac2f0074146100fd578063bd6d605c146101d7578063c6e36a3214610288575b600080fd5b6100646102d4565b6040518080602001828103825283818151815260200191508051906020019080838360005b838110156100a4578082015181840152602081019050610089565b50505050905090810190601f1680156100d15780820380516001836020036101000a031916815260200191505b509250505060405180910390f35b6100e7610372565b6040518082815260200191505060405180910390f35b6101296004803603602081101561011357600080fd5b8101908080359060200190929190505050610378565b60405180806020018373ffffffffffffffffffffffffffffffffffffffff1673ffffffffffffffffffffffffffffffffffffffff168152602001828103825284818151815260200191508051906020019080838360005b8381101561019b578082015181840152602081019050610180565b50505050905090810190601f1680156101c85780820380516001836020036101000a031916815260200191505b50935050505060405180910390f35b61020d600480360360408110156101ed57600080fd5b810190808035906020019092919080359060200190929190505050610454565b6040518080602001828103825283818151815260200191508051906020019080838360005b8381101561024d578082015181840152602081019050610232565b50505050905090810190601f16801561027a5780820380516001836020036101000a031916815260200191505b509250505060405180910390f35b6102be6004803603604081101561029e57600080fd5b81019080803590602001909291908035906020019092919050505061051a565b6040518082815260200191505060405180910390f35b60008054600181600116156101000203166002900480601f01602080910402602001604051908101604052809291908181526020018280546001816001161561010002031660029004801561036a5780601f1061033f5761010080835404028352916020019161036a565b820191906000526020600020905b81548152906001019060200180831161034d57829003601f168201915b505050505081565b60015481565b6002602052806000526040600020600091509050806000018054600181600116156101000203166002900480601f0160208091040260200160405190810160405280929190818152602001828054600181600116156101000203166002900480156104245780601f106103f957610100808354040283529160200191610424565b820191906000526020600020905b81548152906001019060200180831161040757829003601f168201915b5050505050908060010160009054906101000a900473ffffffffffffffffffffffffffffffffffffffff16905082565b6004602052816000526040600020818154811061046d57fe5b90600052602060002001600091509150508054600181600116156101000203166002900480601f0160208091040260200160405190810160405280929190818152602001828054600181600116156101000203166002900480156105125780601f106104e757610100808354040283529160200191610512565b820191906000526020600020905b8154815290600101906020018083116104f557829003601f168201915b505050505081565b6003602052816000526040600020818154811061053357fe5b9060005260206000200160009150915050548156fea265627a7a72315820bd54369e6b7fca51294d98bed31bf6b8060161f562d70b102d0760b91fd1309e64736f6c63430005100032",
  "source": "pragma solidity ^0.5.0;\n\ncontract CryptoPolls {\n    string public name = \"CryptoPolls\";\n\n    uint256 public totalPolls = 0;\n    mapping(uint256 => Poll) public polls;\n    mapping(uint256 => uint256[]) public votes;\n    mapping(uint256 => string[]) public options;\n\n    struct Poll {\n        string title;\n        address author;\n    }\n\n    event PollCreated(string title, address author);\n\n    constructor() public {\n        totalPolls++;\n        polls[totalPolls] = Poll(\"Poll 1\", address(0));\n\n        options[totalPolls].push(\"Opt 1\");\n        options[totalPolls].push(\"Opt 2\");\n        options[totalPolls].push(\"Opt 3\");\n        options[totalPolls].push(\"Opt 4\");\n\n        votes[totalPolls].push(0);\n        votes[totalPolls].push(0);\n\n        totalPolls++;\n        polls[totalPolls] = Poll(\"Poll 2\", address(0));\n\n        options[totalPolls].push(\"Opt 1\");\n        options[totalPolls].push(\"Opt 2\");\n\n        votes[totalPolls].push(0);\n        votes[totalPolls].push(0);\n    }\n}\n",
  "sourcePath": "/home/cafeina/sources/solidity/blockchain-election/contracts/CryptoPolls.sol",
  "compiler": {
    "name": "solc",
    "version": "0.5.16+commit.9c3226ce.Emscripten.clang"
  },
  "schemaVersion": "3.4.1",
  "updatedAt": "2021-08-01T03:49:41.343Z",
  "networkType": "ethereum",
  "devdoc": {
    "methods": {}
  },
  "userdoc": {
    "methods": {}
  }
}