{
  "contractName": "CryptoPolls",
  "abi": [
    {
      "anonymous": false,
      "inputs": [
        {
          "indexed": false,
          "internalType": "uint256",
          "name": "id",
          "type": "uint256"
        },
        {
          "indexed": false,
          "internalType": "uint256",
          "name": "creationDate",
          "type": "uint256"
        },
        {
          "indexed": false,
          "internalType": "uint256",
          "name": "finishDate",
          "type": "uint256"
        },
        {
          "indexed": false,
          "internalType": "address",
          "name": "author",
          "type": "address"
        },
        {
          "indexed": false,
          "internalType": "string",
          "name": "title",
          "type": "string"
        }
      ],
      "name": "PollCreated",
      "type": "event"
    },
    {
      "inputs": [
        {
          "internalType": "uint256",
          "name": "",
          "type": "uint256"
        },
        {
          "internalType": "uint256",
          "name": "",
          "type": "uint256"
        }
      ],
      "name": "pollOptions",
      "outputs": [
        {
          "internalType": "string",
          "name": "",
          "type": "string"
        }
      ],
      "stateMutability": "view",
      "type": "function",
      "constant": true
    },
    {
      "inputs": [
        {
          "internalType": "uint256",
          "name": "",
          "type": "uint256"
        }
      ],
      "name": "pollToOwner",
      "outputs": [
        {
          "internalType": "address",
          "name": "",
          "type": "address"
        }
      ],
      "stateMutability": "view",
      "type": "function",
      "constant": true
    },
    {
      "inputs": [
        {
          "internalType": "uint256",
          "name": "",
          "type": "uint256"
        },
        {
          "internalType": "uint256",
          "name": "",
          "type": "uint256"
        }
      ],
      "name": "pollVotes",
      "outputs": [
        {
          "internalType": "uint256",
          "name": "",
          "type": "uint256"
        }
      ],
      "stateMutability": "view",
      "type": "function",
      "constant": true
    },
    {
      "inputs": [
        {
          "internalType": "uint256",
          "name": "",
          "type": "uint256"
        }
      ],
      "name": "polls",
      "outputs": [
        {
          "internalType": "uint256",
          "name": "id",
          "type": "uint256"
        },
        {
          "internalType": "uint256",
          "name": "creationDate",
          "type": "uint256"
        },
        {
          "internalType": "uint256",
          "name": "finishDate",
          "type": "uint256"
        },
        {
          "internalType": "uint8",
          "name": "totalOptions",
          "type": "uint8"
        },
        {
          "internalType": "address",
          "name": "author",
          "type": "address"
        },
        {
          "internalType": "string",
          "name": "title",
          "type": "string"
        }
      ],
      "stateMutability": "view",
      "type": "function",
      "constant": true
    },
    {
      "inputs": [],
      "name": "totalPolls",
      "outputs": [
        {
          "internalType": "uint256",
          "name": "",
          "type": "uint256"
        }
      ],
      "stateMutability": "view",
      "type": "function",
      "constant": true
    },
    {
      "inputs": [
        {
          "internalType": "uint256",
          "name": "_pollId",
          "type": "uint256"
        }
      ],
      "name": "getPollOptions",
      "outputs": [
        {
          "internalType": "string[]",
          "name": "",
          "type": "string[]"
        }
      ],
      "stateMutability": "view",
      "type": "function",
      "constant": true
    },
    {
      "inputs": [
        {
          "internalType": "uint256",
          "name": "_pollId",
          "type": "uint256"
        }
      ],
      "name": "getPollVotes",
      "outputs": [
        {
          "internalType": "uint256[]",
          "name": "",
          "type": "uint256[]"
        }
      ],
      "stateMutability": "view",
      "type": "function",
      "constant": true
    },
    {
      "inputs": [
        {
          "internalType": "string",
          "name": "_title",
          "type": "string"
        },
        {
          "internalType": "uint8",
          "name": "totalOptions",
          "type": "uint8"
        },
        {
          "internalType": "string[]",
          "name": "_options",
          "type": "string[]"
        }
      ],
      "name": "createPoll",
      "outputs": [],
      "stateMutability": "nonpayable",
      "type": "function"
    },
    {
      "inputs": [
        {
          "internalType": "uint256",
          "name": "_pollId",
          "type": "uint256"
        },
        {
          "internalType": "uint256",
          "name": "_optionId",
          "type": "uint256"
        }
      ],
      "name": "vote",
      "outputs": [],
      "stateMutability": "nonpayable",
      "type": "function"
    }
  ],
  "bytecode": "0x60806040526000805534801561001457600080fd5b50611252806100246000396000f3fe608060405234801561001057600080fd5b50600436106100935760003560e01c8063ac2f007411610066578063ac2f007414610132578063b384abef14610167578063bbff716614610183578063f0114ad1146101b3578063f7562765146101e357610093565b80630e77e4f7146100985780633cd2f003146100c8578063934df0e1146100e4578063a2eeeb2f14610114575b600080fd5b6100b260048036038101906100ad9190610bae565b610213565b6040516100bf9190610dc0565b60405180910390f35b6100e260048036038101906100dd9190610b2f565b610246565b005b6100fe60048036038101906100f99190610bd7565b6104bb565b60405161010b9190610e41565b60405180910390f35b61011c6104ec565b6040516101299190610e41565b60405180910390f35b61014c60048036038101906101479190610bae565b6104f2565b60405161015e96959493929190610eb6565b60405180910390f35b610181600480360381019061017c9190610bd7565b6105e3565b005b61019d60048036038101906101989190610bae565b610652565b6040516101aa9190610dfd565b60405180910390f35b6101cd60048036038101906101c89190610bd7565b6106bd565b6040516101da9190610e1f565b60405180910390f35b6101fd60048036038101906101f89190610bae565b610776565b60405161020a9190610ddb565b60405180910390f35b60016020528060005260406000206000915054906101000a900473ffffffffffffffffffffffffffffffffffffffff1681565b60008081548092919061025890611107565b919050555033600160008054815260200190815260200160002060006101000a81548173ffffffffffffffffffffffffffffffffffffffff021916908373ffffffffffffffffffffffffffffffffffffffff1602179055506040518060c0016040528060005481526020014281526020014281526020018360ff1681526020013373ffffffffffffffffffffffffffffffffffffffff16815260200184815250600260008054815260200190815260200160002060008201518160000155602082015181600101556040820151816002015560608201518160030160006101000a81548160ff021916908360ff16021790555060808201518160030160016101000a81548173ffffffffffffffffffffffffffffffffffffffff021916908373ffffffffffffffffffffffffffffffffffffffff16021790555060a08201518160040190805190602001906103ae929190610862565b5090505080600360008054815260200190815260200160002090805190602001906103da9291906108e8565b508160ff1667ffffffffffffffff81111561041e577f4e487b7100000000000000000000000000000000000000000000000000000000600052604160045260246000fd5b60405190808252806020026020018201604052801561044c5781602001602082028036833780820191505090505b5060046000805481526020019081526020016000209080519060200190610474929190610948565b507f12c37c67e01057da8b5402652ecd06c3980f2dd8f8067b34259ea4a8c3270937600054424233876040516104ae959493929190610e5c565b60405180910390a1505050565b600460205281600052604060002081815481106104d757600080fd5b90600052602060002001600091509150505481565b60005481565b60026020528060005260406000206000915090508060000154908060010154908060020154908060030160009054906101000a900460ff16908060030160019054906101000a900473ffffffffffffffffffffffffffffffffffffffff1690806004018054610560906110d5565b80601f016020809104026020016040519081016040528092919081815260200182805461058c906110d5565b80156105d95780601f106105ae576101008083540402835291602001916105d9565b820191906000526020600020905b8154815290600101906020018083116105bc57829003601f168201915b5050505050905086565b60046000838152602001908152602001600020818154811061062e577f4e487b7100000000000000000000000000000000000000000000000000000000600052603260045260246000fd5b90600052602060002001600081548092919061064990611107565b91905055505050565b6060600460008381526020019081526020016000208054806020026020016040519081016040528092919081815260200182805480156106b157602002820191906000526020600020905b81548152602001906001019080831161069d575b50505050509050919050565b600360205281600052604060002081815481106106d957600080fd5b906000526020600020016000915091505080546106f5906110d5565b80601f0160208091040260200160405190810160405280929190818152602001828054610721906110d5565b801561076e5780601f106107435761010080835404028352916020019161076e565b820191906000526020600020905b81548152906001019060200180831161075157829003601f168201915b505050505081565b606060036000838152602001908152602001600020805480602002602001604051908101604052809291908181526020016000905b828210156108575783829060005260206000200180546107ca906110d5565b80601f01602080910402602001604051908101604052809291908181526020018280546107f6906110d5565b80156108435780601f1061081857610100808354040283529160200191610843565b820191906000526020600020905b81548152906001019060200180831161082657829003601f168201915b5050505050815260200190600101906107ab565b505050509050919050565b82805461086e906110d5565b90600052602060002090601f01602090048101928261089057600085556108d7565b82601f106108a957805160ff19168380011785556108d7565b828001600101855582156108d7579182015b828111156108d65782518255916020019190600101906108bb565b5b5090506108e49190610995565b5090565b828054828255906000526020600020908101928215610937579160200282015b82811115610936578251829080519060200190610926929190610862565b5091602001919060010190610908565b5b50905061094491906109b2565b5090565b828054828255906000526020600020908101928215610984579160200282015b82811115610983578251825591602001919060010190610968565b5b5090506109919190610995565b5090565b5b808211156109ae576000816000905550600101610996565b5090565b5b808211156109d257600081816109c991906109d6565b506001016109b3565b5090565b5080546109e2906110d5565b6000825580601f106109f45750610a13565b601f016020900490600052602060002090810190610a129190610995565b5b50565b6000610a29610a2484610f4f565b610f1e565b9050808382526020820190508260005b85811015610a695781358501610a4f8882610adb565b845260208401935060208301925050600181019050610a39565b5050509392505050565b6000610a86610a8184610f7b565b610f1e565b905082815260208101848484011115610a9e57600080fd5b610aa9848285611093565b509392505050565b600082601f830112610ac257600080fd5b8135610ad2848260208601610a16565b91505092915050565b600082601f830112610aec57600080fd5b8135610afc848260208601610a73565b91505092915050565b600081359050610b14816111ee565b92915050565b600081359050610b2981611205565b92915050565b600080600060608486031215610b4457600080fd5b600084013567ffffffffffffffff811115610b5e57600080fd5b610b6a86828701610adb565b9350506020610b7b86828701610b1a565b925050604084013567ffffffffffffffff811115610b9857600080fd5b610ba486828701610ab1565b9150509250925092565b600060208284031215610bc057600080fd5b6000610bce84828501610b05565b91505092915050565b60008060408385031215610bea57600080fd5b6000610bf885828601610b05565b9250506020610c0985828601610b05565b9150509250929050565b6000610c1f8383610d21565b905092915050565b6000610c338383610d93565b60208301905092915050565b610c488161104a565b82525050565b6000610c5982610fcb565b610c638185611006565b935083602082028501610c7585610fab565b8060005b85811015610cb15784840389528151610c928582610c13565b9450610c9d83610fec565b925060208a01995050600181019050610c79565b50829750879550505050505092915050565b6000610cce82610fd6565b610cd88185611017565b9350610ce383610fbb565b8060005b83811015610d14578151610cfb8882610c27565b9750610d0683610ff9565b925050600181019050610ce7565b5085935050505092915050565b6000610d2c82610fe1565b610d368185611028565b9350610d468185602086016110a2565b610d4f816111dd565b840191505092915050565b6000610d6582610fe1565b610d6f8185611039565b9350610d7f8185602086016110a2565b610d88816111dd565b840191505092915050565b610d9c8161107c565b82525050565b610dab8161107c565b82525050565b610dba81611086565b82525050565b6000602082019050610dd56000830184610c3f565b92915050565b60006020820190508181036000830152610df58184610c4e565b905092915050565b60006020820190508181036000830152610e178184610cc3565b905092915050565b60006020820190508181036000830152610e398184610d5a565b905092915050565b6000602082019050610e566000830184610da2565b92915050565b600060a082019050610e716000830188610da2565b610e7e6020830187610da2565b610e8b6040830186610da2565b610e986060830185610c3f565b8181036080830152610eaa8184610d5a565b90509695505050505050565b600060c082019050610ecb6000830189610da2565b610ed86020830188610da2565b610ee56040830187610da2565b610ef26060830186610db1565b610eff6080830185610c3f565b81810360a0830152610f118184610d5a565b9050979650505050505050565b6000604051905081810181811067ffffffffffffffff82111715610f4557610f446111ae565b5b8060405250919050565b600067ffffffffffffffff821115610f6a57610f696111ae565b5b602082029050602081019050919050565b600067ffffffffffffffff821115610f9657610f956111ae565b5b601f19601f8301169050602081019050919050565b6000819050602082019050919050565b6000819050602082019050919050565b600081519050919050565b600081519050919050565b600081519050919050565b6000602082019050919050565b6000602082019050919050565b600082825260208201905092915050565b600082825260208201905092915050565b600082825260208201905092915050565b600082825260208201905092915050565b60006110558261105c565b9050919050565b600073ffffffffffffffffffffffffffffffffffffffff82169050919050565b6000819050919050565b600060ff82169050919050565b82818337600083830152505050565b60005b838110156110c05780820151818401526020810190506110a5565b838111156110cf576000848401525b50505050565b600060028204905060018216806110ed57607f821691505b602082108114156111015761110061117f565b5b50919050565b60006111128261107c565b91507fffffffffffffffffffffffffffffffffffffffffffffffffffffffffffffffff82141561114557611144611150565b5b600182019050919050565b7f4e487b7100000000000000000000000000000000000000000000000000000000600052601160045260246000fd5b7f4e487b7100000000000000000000000000000000000000000000000000000000600052602260045260246000fd5b7f4e487b7100000000000000000000000000000000000000000000000000000000600052604160045260246000fd5b6000601f19601f8301169050919050565b6111f78161107c565b811461120257600080fd5b50565b61120e81611086565b811461121957600080fd5b5056fea2646970667358221220c6edf8338866a710183637ad319572c58be7f6ab8d90ebe7b6512ef1a83c03a364736f6c63430008000033",
  "immutableReferences": {},
  "source": "pragma solidity ^0.8.0;\n\ncontract CryptoPolls {\n    uint256 public totalPolls = 0;\n    mapping(uint256 => address) public pollToOwner;\n    mapping(uint256 => Poll) public polls;\n    mapping(uint256 => string[]) public pollOptions;\n    mapping(uint256 => uint256[]) public pollVotes;\n\n    //TODO: REDUCE UINT SIZE\n    struct Poll {\n        uint256 id;\n        uint256 creationDate;\n        uint256 finishDate;\n        uint8 totalOptions;\n        address author;\n        string title;\n    }\n\n    event PollCreated(\n        uint256 id,\n        uint256 creationDate,\n        uint256 finishDate,\n        address author,\n        string title\n    );\n\n    function getPollOptions(uint256 _pollId)\n        public\n        view\n        returns (string[] memory)\n    {\n        return pollOptions[_pollId];\n    }\n\n    function getPollVotes(uint256 _pollId)\n        public\n        view\n        returns (uint256[] memory)\n    {\n        return pollVotes[_pollId];\n    }\n\n    function createPoll(\n        string memory _title,\n        uint8 totalOptions,\n        string[] memory _options\n    ) public {\n        totalPolls++;\n        pollToOwner[totalPolls] = msg.sender;\n        polls[totalPolls] = Poll(\n            totalPolls,\n            block.timestamp,\n            block.timestamp,\n            totalOptions,\n            msg.sender,\n            _title\n        );\n\n        pollOptions[totalPolls] = _options;\n        pollVotes[totalPolls] = new uint256[](totalOptions);\n\n        emit PollCreated(\n            totalPolls,\n            block.timestamp,\n            block.timestamp,\n            msg.sender,\n            _title\n        );\n    }\n\n    function vote(uint256 _pollId, uint256 _optionId) public {\n        pollVotes[_pollId][_optionId]++;\n    }\n}\n",
  "sourcePath": "/home/cafeina/sources/solidity/crypto-polls/contracts/CryptoPolls.sol",
  "compiler": {
    "name": "solc",
    "version": "0.8.0+commit.c7dfd78e.Emscripten.clang"
  },
  "schemaVersion": "3.4.1",
  "updatedAt": "2021-08-08T22:07:28.210Z",
  "networkType": "ethereum",
  "devdoc": {
    "kind": "dev",
    "methods": {},
    "version": 1
  },
  "userdoc": {
    "kind": "user",
    "methods": {},
    "version": 1
  }
}