{
  "contractName": "CryptoPolls",
  "abi": [
    {
      "inputs": [
        {
          "internalType": "uint256",
          "name": "",
          "type": "uint256"
        }
      ],
      "name": "pollToOwner",
      "outputs": [
        {
          "internalType": "address",
          "name": "",
          "type": "address"
        }
      ],
      "stateMutability": "view",
      "type": "function",
      "constant": true
    },
    {
      "inputs": [
        {
          "internalType": "uint256",
          "name": "",
          "type": "uint256"
        }
      ],
      "name": "polls",
      "outputs": [
        {
          "internalType": "uint256",
          "name": "id",
          "type": "uint256"
        },
        {
          "internalType": "uint256",
          "name": "voteCount",
          "type": "uint256"
        },
        {
          "internalType": "uint256",
          "name": "creationDate",
          "type": "uint256"
        },
        {
          "internalType": "uint256",
          "name": "finishDate",
          "type": "uint256"
        },
        {
          "internalType": "address",
          "name": "author",
          "type": "address"
        },
        {
          "internalType": "string",
          "name": "title",
          "type": "string"
        }
      ],
      "stateMutability": "view",
      "type": "function",
      "constant": true
    },
    {
      "inputs": [],
      "name": "totalPolls",
      "outputs": [
        {
          "internalType": "uint256",
          "name": "",
          "type": "uint256"
        }
      ],
      "stateMutability": "view",
      "type": "function",
      "constant": true
    },
    {
      "inputs": [
        {
          "internalType": "string",
          "name": "_title",
          "type": "string"
        }
      ],
      "name": "createPoll",
      "outputs": [],
      "stateMutability": "nonpayable",
      "type": "function"
    }
  ],
  "bytecode": "0x60806040526000805534801561001457600080fd5b50610843806100246000396000f3fe608060405234801561001057600080fd5b506004361061004c5760003560e01c80630e77e4f71461005157806374a9ced914610081578063a2eeeb2f1461009d578063ac2f0074146100bb575b600080fd5b61006b600480360381019061006691906104c4565b6100f0565b6040516100789190610544565b60405180910390f35b61009b60048036038101906100969190610483565b610123565b005b6100a5610279565b6040516100b2919061055f565b60405180910390f35b6100d560048036038101906100d091906104c4565b61027f565b6040516100e79695949392919061057a565b60405180910390f35b60016020528060005260406000206000915054906101000a900473ffffffffffffffffffffffffffffffffffffffff1681565b6000808154809291906101359061070f565b919050555033600160008054815260200190815260200160002060006101000a81548173ffffffffffffffffffffffffffffffffffffffff021916908373ffffffffffffffffffffffffffffffffffffffff1602179055506040518060c001604052806000548152602001600081526020014281526020014281526020013373ffffffffffffffffffffffffffffffffffffffff1681526020018281525060026000805481526020019081526020016000206000820151816000015560208201518160010155604082015181600201556060820151816003015560808201518160040160006101000a81548173ffffffffffffffffffffffffffffffffffffffff021916908373ffffffffffffffffffffffffffffffffffffffff16021790555060a0820151816005019080519060200190610272929190610363565b5090505050565b60005481565b60026020528060005260406000206000915090508060000154908060010154908060020154908060030154908060040160009054906101000a900473ffffffffffffffffffffffffffffffffffffffff16908060050180546102e0906106dd565b80601f016020809104026020016040519081016040528092919081815260200182805461030c906106dd565b80156103595780601f1061032e57610100808354040283529160200191610359565b820191906000526020600020905b81548152906001019060200180831161033c57829003601f168201915b5050505050905086565b82805461036f906106dd565b90600052602060002090601f01602090048101928261039157600085556103d8565b82601f106103aa57805160ff19168380011785556103d8565b828001600101855582156103d8579182015b828111156103d75782518255916020019190600101906103bc565b5b5090506103e591906103e9565b5090565b5b808211156104025760008160009055506001016103ea565b5090565b600061041961041484610613565b6105e2565b90508281526020810184848401111561043157600080fd5b61043c84828561069b565b509392505050565b600082601f83011261045557600080fd5b8135610465848260208601610406565b91505092915050565b60008135905061047d816107f6565b92915050565b60006020828403121561049557600080fd5b600082013567ffffffffffffffff8111156104af57600080fd5b6104bb84828501610444565b91505092915050565b6000602082840312156104d657600080fd5b60006104e48482850161046e565b91505092915050565b6104f68161065f565b82525050565b600061050782610643565b610511818561064e565b93506105218185602086016106aa565b61052a816107e5565b840191505092915050565b61053e81610691565b82525050565b600060208201905061055960008301846104ed565b92915050565b60006020820190506105746000830184610535565b92915050565b600060c08201905061058f6000830189610535565b61059c6020830188610535565b6105a96040830187610535565b6105b66060830186610535565b6105c360808301856104ed565b81810360a08301526105d581846104fc565b9050979650505050505050565b6000604051905081810181811067ffffffffffffffff82111715610609576106086107b6565b5b8060405250919050565b600067ffffffffffffffff82111561062e5761062d6107b6565b5b601f19601f8301169050602081019050919050565b600081519050919050565b600082825260208201905092915050565b600061066a82610671565b9050919050565b600073ffffffffffffffffffffffffffffffffffffffff82169050919050565b6000819050919050565b82818337600083830152505050565b60005b838110156106c85780820151818401526020810190506106ad565b838111156106d7576000848401525b50505050565b600060028204905060018216806106f557607f821691505b6020821081141561070957610708610787565b5b50919050565b600061071a82610691565b91507fffffffffffffffffffffffffffffffffffffffffffffffffffffffffffffffff82141561074d5761074c610758565b5b600182019050919050565b7f4e487b7100000000000000000000000000000000000000000000000000000000600052601160045260246000fd5b7f4e487b7100000000000000000000000000000000000000000000000000000000600052602260045260246000fd5b7f4e487b7100000000000000000000000000000000000000000000000000000000600052604160045260246000fd5b6000601f19601f8301169050919050565b6107ff81610691565b811461080a57600080fd5b5056fea2646970667358221220245a9a8fcf707f981026cc4537dacd2046f3ae7b6513ce8f57c41c4b63c0b47c64736f6c63430008000033",
  "immutableReferences": {},
  "source": "pragma solidity ^0.8.0;\n\ncontract CryptoPolls {\n    uint256 public totalPolls = 0;\n    mapping(uint256 => address) public pollToOwner;\n    mapping(uint256 => Poll) public polls;\n    mapping(uint256 => string[]) pollOptions;\n    mapping(uint256 => uint256[]) pollVotes;\n\n    //TODO: REDUCE UINT SIZE\n    struct Poll {\n        uint256 id;\n        uint256 voteCount;\n        uint256 creationDate;\n        uint256 finishDate;\n        address author;\n        string title;\n    }\n\n    function createPoll(string memory _title) public {\n        totalPolls++;\n        pollToOwner[totalPolls] = msg.sender;\n        polls[totalPolls] = Poll(\n            totalPolls,\n            0,\n            block.timestamp,\n            block.timestamp,\n            msg.sender,\n            _title\n        );\n    }\n}\n",
  "sourcePath": "/home/cafeina/sources/solidity/crypto-polls/contracts/CryptoPolls.sol",
  "compiler": {
    "name": "solc",
    "version": "0.8.0+commit.c7dfd78e.Emscripten.clang"
  },
  "schemaVersion": "3.4.1",
  "updatedAt": "2021-08-08T01:51:30.789Z",
  "networkType": "ethereum",
  "devdoc": {
    "kind": "dev",
    "methods": {},
    "version": 1
  },
  "userdoc": {
    "kind": "user",
    "methods": {},
    "version": 1
  }
}