{
  "contractName": "PollCreation",
  "abi": [
    {
      "constant": false,
      "inputs": [],
      "name": "create",
      "outputs": [],
      "payable": false,
      "stateMutability": "nonpayable",
      "type": "function"
    }
  ],
  "bytecode": "0x6080604052348015600f57600080fd5b50606c80601d6000396000f3fe6080604052348015600f57600080fd5b506004361060285760003560e01c8063efc81a8c14602d575b600080fd5b60336035565b005b56fea265627a7a72315820a6b737348dbeaa3b707c814f074827e1d0e8bc1c9c7ad8423c18c32140a2d24a64736f6c63430005100032",
  "source": "pragma solidity ^0.5.0;\n\ncontract PollCreation {\n    mapping(uint256 => string[]) pollOptions;\n    mapping(uint256 => uint256[]) pollVotes;\n\n    struct Poll {\n        uint256 id;\n        uint256 voteCount;\n        uint256 creationDate;\n        uint256 finishDate;\n        address author;\n        string title;\n    }\n\n    function create() public {}\n}\n",
  "sourcePath": "/home/cafeina/sources/solidity/crypto-polls/contracts/PollCreation.sol",
  "compiler": {
    "name": "solc",
    "version": "0.5.16+commit.9c3226ce.Emscripten.clang"
  },
  "schemaVersion": "3.4.1",
  "updatedAt": "2021-08-05T03:22:35.140Z",
  "networkType": "ethereum",
  "devdoc": {
    "methods": {}
  },
  "userdoc": {
    "methods": {}
  }
}